{
  "_format": "hh-sol-artifact-1",
  "contractName": "OpenQ",
  "sourceName": "contracts/OpenQ.sol",
  "abi": [
    {
      "anonymous": false,
      "inputs": [
        {
          "indexed": false,
          "internalType": "string",
          "name": "issueId",
          "type": "string"
        },
        {
          "indexed": true,
          "internalType": "address",
          "name": "issueAddress",
          "type": "address"
        },
        {
          "indexed": true,
          "internalType": "address",
          "name": "payoutAddress",
          "type": "address"
        }
      ],
      "name": "IssueClosed",
      "type": "event"
    },
    {
      "anonymous": false,
      "inputs": [
        {
          "indexed": false,
          "internalType": "string",
          "name": "issueId",
          "type": "string"
        },
        {
          "indexed": true,
          "internalType": "address",
          "name": "issuer",
          "type": "address"
        },
        {
          "indexed": true,
          "internalType": "address",
          "name": "issueAddress",
          "type": "address"
        },
        {
          "indexed": false,
          "internalType": "uint256",
          "name": "issueTime",
          "type": "uint256"
        }
      ],
      "name": "IssueCreated",
      "type": "event"
    },
    {
      "anonymous": false,
      "inputs": [
        {
          "indexed": true,
          "internalType": "address",
          "name": "previousOwner",
          "type": "address"
        },
        {
          "indexed": true,
          "internalType": "address",
          "name": "newOwner",
          "type": "address"
        }
      ],
      "name": "OwnershipTransferred",
      "type": "event"
    },
    {
      "inputs": [
        {
          "internalType": "address",
          "name": "tokenAddress",
          "type": "address"
        }
      ],
      "name": "addTokenAddress",
      "outputs": [],
      "stateMutability": "nonpayable",
      "type": "function"
    },
    {
      "inputs": [
        {
          "internalType": "address",
          "name": "",
          "type": "address"
        }
      ],
      "name": "addressToIssue",
      "outputs": [
        {
          "internalType": "string",
          "name": "",
          "type": "string"
        }
      ],
      "stateMutability": "view",
      "type": "function"
    },
    {
      "inputs": [
        {
          "internalType": "string",
          "name": "_id",
          "type": "string"
        },
        {
          "internalType": "address",
          "name": "_payoutAddress",
          "type": "address"
        }
      ],
      "name": "claimBounty",
      "outputs": [],
      "stateMutability": "nonpayable",
      "type": "function"
    },
    {
      "inputs": [
        {
          "internalType": "string",
          "name": "_id",
          "type": "string"
        }
      ],
      "name": "getBountyAddress",
      "outputs": [
        {
          "internalType": "address",
          "name": "",
          "type": "address"
        }
      ],
      "stateMutability": "view",
      "type": "function"
    },
    {
      "inputs": [],
      "name": "getIssueIds",
      "outputs": [
        {
          "internalType": "string[]",
          "name": "",
          "type": "string[]"
        }
      ],
      "stateMutability": "view",
      "type": "function"
    },
    {
      "inputs": [
        {
          "internalType": "uint256",
          "name": "",
          "type": "uint256"
        }
      ],
      "name": "issueIds",
      "outputs": [
        {
          "internalType": "string",
          "name": "",
          "type": "string"
        }
      ],
      "stateMutability": "view",
      "type": "function"
    },
    {
      "inputs": [
        {
          "internalType": "string",
          "name": "id_",
          "type": "string"
        }
      ],
      "name": "issueIsOpen",
      "outputs": [
        {
          "internalType": "bool",
          "name": "",
          "type": "bool"
        }
      ],
      "stateMutability": "view",
      "type": "function"
    },
    {
      "inputs": [
        {
          "internalType": "string",
          "name": "",
          "type": "string"
        }
      ],
      "name": "issueToAddress",
      "outputs": [
        {
          "internalType": "address",
          "name": "",
          "type": "address"
        }
      ],
      "stateMutability": "view",
      "type": "function"
    },
    {
      "inputs": [
        {
          "internalType": "string",
          "name": "_id",
          "type": "string"
        }
      ],
      "name": "mintBounty",
      "outputs": [
        {
          "internalType": "address",
          "name": "issueAddress",
          "type": "address"
        }
      ],
      "stateMutability": "nonpayable",
      "type": "function"
    },
    {
      "inputs": [],
      "name": "owner",
      "outputs": [
        {
          "internalType": "address",
          "name": "",
          "type": "address"
        }
      ],
      "stateMutability": "view",
      "type": "function"
    },
    {
      "inputs": [],
      "name": "renounceOwnership",
      "outputs": [],
      "stateMutability": "nonpayable",
      "type": "function"
    },
    {
      "inputs": [
        {
          "internalType": "uint256",
          "name": "",
          "type": "uint256"
        }
      ],
      "name": "tokenAddresses",
      "outputs": [
        {
          "internalType": "address",
          "name": "",
          "type": "address"
        }
      ],
      "stateMutability": "view",
      "type": "function"
    },
    {
      "inputs": [
        {
          "internalType": "address",
          "name": "newOwner",
          "type": "address"
        }
      ],
      "name": "transferOwnership",
      "outputs": [],
      "stateMutability": "nonpayable",
      "type": "function"
    }
  ],
  "bytecode": "0x608060405234801561001057600080fd5b5061002d61002261003260201b60201c565b61003a60201b60201c565b6100fe565b600033905090565b60008060009054906101000a900473ffffffffffffffffffffffffffffffffffffffff169050816000806101000a81548173ffffffffffffffffffffffffffffffffffffffff021916908373ffffffffffffffffffffffffffffffffffffffff1602179055508173ffffffffffffffffffffffffffffffffffffffff168173ffffffffffffffffffffffffffffffffffffffff167f8be0079c531659141344cd1fd0a4f28419497f9722a3daafe3b4186f6b6457e060405160405180910390a35050565b61367d8061010d6000396000f3fe60806040523480156200001157600080fd5b5060043610620000e25760003560e01c8063b83b6b651162000099578063e5df8b84116200006f578063e5df8b84146200024f578063eea7f9241462000285578063f2fde38b14620002bb578063fcedbecf14620002db57620000e2565b8063b83b6b6514620001c1578063c4a9199c14620001f7578063cde96283146200022d57620000e2565b80633e7da1a914620000e75780634badc44e146200010757806351992fcb146200013d578063715018a6146200015d5780638da5cb5b1462000169578063b233e6e8146200018b575b600080fd5b620001056004803603810190620000ff919062001160565b62000311565b005b6200012560048036038101906200011f919062001203565b620004bf565b6040516200013491906200160c565b60405180910390f35b6200015b600480360381019062000155919062001093565b62000574565b005b62000167620005da565b005b620001736200066b565b60405162000182919062001505565b60405180910390f35b620001a96004803603810190620001a3919062001117565b62000694565b604051620001b8919062001505565b60405180910390f35b620001df6004803603810190620001d9919062001093565b620008ee565b604051620001ee91906200160c565b60405180910390f35b6200021560048036038101906200020f919062001117565b62000996565b60405162000224919062001546565b60405180910390f35b6200023762000b31565b60405162000246919062001522565b60405180910390f35b6200026d600480360381019062000267919062001203565b62000c14565b6040516200027c919062001505565b60405180910390f35b620002a360048036038101906200029d9190620011be565b62000c54565b604051620002b2919062001505565b60405180910390f35b620002d96004803603810190620002d3919062001093565b62000c9d565b005b620002f96004803603810190620002f3919062001117565b62000da1565b60405162000308919062001505565b60405180910390f35b6200031b62000dee565b73ffffffffffffffffffffffffffffffffffffffff166200033b6200066b565b73ffffffffffffffffffffffffffffffffffffffff161462000394576040517f08c379a00000000000000000000000000000000000000000000000000000000081526004016200038b9062001674565b60405180910390fd5b600060028484604051620003aa929190620014ea565b908152602001604051809103902060009054906101000a900473ffffffffffffffffffffffffffffffffffffffff16905060008190508073ffffffffffffffffffffffffffffffffffffffff16639375dd90846040518263ffffffff1660e01b81526004016200041b919062001505565b600060405180830381600087803b1580156200043657600080fd5b505af11580156200044b573d6000803e3d6000fd5b505050508273ffffffffffffffffffffffffffffffffffffffff168273ffffffffffffffffffffffffffffffffffffffff167fe8bca3c18ca1c7ab481718f184745e0be969b9ff855fc58d9a483562ec9c960d8787604051620004b092919062001563565b60405180910390a35050505050565b60018181548110620004d057600080fd5b906000526020600020016000915090508054620004ed9062001853565b80601f01602080910402602001604051908101604052809291908181526020018280546200051b9062001853565b80156200056c5780601f1062000540576101008083540402835291602001916200056c565b820191906000526020600020905b8154815290600101906020018083116200054e57829003601f168201915b505050505081565b6004819080600181540180825580915050600190039060005260206000200160009091909190916101000a81548173ffffffffffffffffffffffffffffffffffffffff021916908373ffffffffffffffffffffffffffffffffffffffff16021790555050565b620005e462000dee565b73ffffffffffffffffffffffffffffffffffffffff16620006046200066b565b73ffffffffffffffffffffffffffffffffffffffff16146200065d576040517f08c379a0000000000000000000000000000000000000000000000000000000008152600401620006549062001674565b60405180910390fd5b62000669600062000df6565b565b60008060009054906101000a900473ffffffffffffffffffffffffffffffffffffffff16905090565b60008073ffffffffffffffffffffffffffffffffffffffff1660028484604051620006c1929190620014ea565b908152602001604051809103902060009054906101000a900473ffffffffffffffffffffffffffffffffffffffff1673ffffffffffffffffffffffffffffffffffffffff161462000749576040517f08c379a0000000000000000000000000000000000000000000000000000000008152600401620007409062001652565b60405180910390fd5b82823360046040516200075c9062000eba565b6200076b949392919062001589565b604051809103906000f08015801562000788573d6000803e3d6000fd5b5090508060028484604051620007a0929190620014ea565b908152602001604051809103902060006101000a81548173ffffffffffffffffffffffffffffffffffffffff021916908373ffffffffffffffffffffffffffffffffffffffff1602179055508282600360008473ffffffffffffffffffffffffffffffffffffffff1673ffffffffffffffffffffffffffffffffffffffff16815260200190815260200160002091906200083c92919062000ec8565b5060018383909180600181540180825580915050600190039060005260206000200160009091929091929091929091925091906200087c92919062000ec8565b508073ffffffffffffffffffffffffffffffffffffffff163373ffffffffffffffffffffffffffffffffffffffff167f95b807ca0d9aa8d33b120dfe508d075cc99c21f7c174a9148435a67132061e9d858542604051620008e093929190620015d6565b60405180910390a392915050565b600360205280600052604060002060009150905080546200090f9062001853565b80601f01602080910402602001604051908101604052809291908181526020018280546200093d9062001853565b80156200098e5780601f1062000962576101008083540402835291602001916200098e565b820191906000526020600020905b8154815290600101906020018083116200097057829003601f168201915b505050505081565b6000803073ffffffffffffffffffffffffffffffffffffffff1663eea7f92485856040518363ffffffff1660e01b8152600401620009d692919062001563565b60206040518083038186803b158015620009ef57600080fd5b505afa15801562000a04573d6000803e3d6000fd5b505050506040513d601f19601f8201168201806040525081019062000a2a9190620010bf565b9050600080600181111562000a68577f4e487b7100000000000000000000000000000000000000000000000000000000600052602160045260246000fd5b8273ffffffffffffffffffffffffffffffffffffffff1663200d2ed26040518163ffffffff1660e01b815260040160206040518083038186803b15801562000aaf57600080fd5b505afa15801562000ac4573d6000803e3d6000fd5b505050506040513d601f19601f8201168201806040525081019062000aea9190620010eb565b600181111562000b23577f4e487b7100000000000000000000000000000000000000000000000000000000600052602160045260246000fd5b149050809250505092915050565b60606001805480602002602001604051908101604052809291908181526020016000905b8282101562000c0b57838290600052602060002001805462000b779062001853565b80601f016020809104026020016040519081016040528092919081815260200182805462000ba59062001853565b801562000bf65780601f1062000bca5761010080835404028352916020019162000bf6565b820191906000526020600020905b81548152906001019060200180831162000bd857829003601f168201915b50505050508152602001906001019062000b55565b50505050905090565b6004818154811062000c2557600080fd5b906000526020600020016000915054906101000a900473ffffffffffffffffffffffffffffffffffffffff1681565b6002818051602081018201805184825260208301602085012081835280955050505050506000915054906101000a900473ffffffffffffffffffffffffffffffffffffffff1681565b62000ca762000dee565b73ffffffffffffffffffffffffffffffffffffffff1662000cc76200066b565b73ffffffffffffffffffffffffffffffffffffffff161462000d20576040517f08c379a000000000000000000000000000000000000000000000000000000000815260040162000d179062001674565b60405180910390fd5b600073ffffffffffffffffffffffffffffffffffffffff168173ffffffffffffffffffffffffffffffffffffffff16141562000d93576040517f08c379a000000000000000000000000000000000000000000000000000000000815260040162000d8a9062001630565b60405180910390fd5b62000d9e8162000df6565b50565b60006002838360405162000db7929190620014ea565b908152602001604051809103902060009054906101000a900473ffffffffffffffffffffffffffffffffffffffff16905092915050565b600033905090565b60008060009054906101000a900473ffffffffffffffffffffffffffffffffffffffff169050816000806101000a81548173ffffffffffffffffffffffffffffffffffffffff021916908373ffffffffffffffffffffffffffffffffffffffff1602179055508173ffffffffffffffffffffffffffffffffffffffff168173ffffffffffffffffffffffffffffffffffffffff167f8be0079c531659141344cd1fd0a4f28419497f9722a3daafe3b4186f6b6457e060405160405180910390a35050565b611b818062001ac783390190565b82805462000ed69062001853565b90600052602060002090601f01602090048101928262000efa576000855562000f46565b82601f1062000f1557803560ff191683800117855562000f46565b8280016001018555821562000f46579182015b8281111562000f4557823582559160200191906001019062000f28565b5b50905062000f55919062000f59565b5090565b5b8082111562000f7457600081600090555060010162000f5a565b5090565b600062000f8f62000f8984620016bf565b62001696565b90508281526020810184848401111562000fa857600080fd5b62000fb58482856200180e565b509392505050565b60008135905062000fce8162001a81565b92915050565b60008151905062000fe58162001a81565b92915050565b60008151905062000ffc8162001a9b565b92915050565b60008083601f8401126200101557600080fd5b8235905067ffffffffffffffff8111156200102f57600080fd5b6020830191508360018202830111156200104857600080fd5b9250929050565b600082601f8301126200106157600080fd5b81356200107384826020860162000f78565b91505092915050565b6000813590506200108d8162001aac565b92915050565b600060208284031215620010a657600080fd5b6000620010b68482850162000fbd565b91505092915050565b600060208284031215620010d257600080fd5b6000620010e28482850162000fd4565b91505092915050565b600060208284031215620010fe57600080fd5b60006200110e8482850162000feb565b91505092915050565b600080602083850312156200112b57600080fd5b600083013567ffffffffffffffff8111156200114657600080fd5b620011548582860162001002565b92509250509250929050565b6000806000604084860312156200117657600080fd5b600084013567ffffffffffffffff8111156200119157600080fd5b6200119f8682870162001002565b93509350506020620011b48682870162000fbd565b9150509250925092565b600060208284031215620011d157600080fd5b600082013567ffffffffffffffff811115620011ec57600080fd5b620011fa848285016200104f565b91505092915050565b6000602082840312156200121657600080fd5b600062001226848285016200107c565b91505092915050565b60006200123d83836200125f565b60208301905092915050565b6000620012578383620013e2565b905092915050565b6200126a81620017c4565b82525050565b6200127b81620017c4565b82525050565b60006200128e826200171a565b6200129a818562001755565b9350620012a783620016f5565b8060005b83811015620012e757620012bf826200193b565b620012cb88826200122f565b9750620012d8836200173b565b925050600181019050620012ab565b5085935050505092915050565b6000620013018262001725565b6200130d818562001766565b93508360208202850162001321856200170a565b8060005b8581101562001363578484038952815162001341858262001249565b94506200134e8362001748565b925060208a0199505060018101905062001325565b50829750879550505050505092915050565b6200138081620017d8565b82525050565b600062001394838562001788565b9350620013a38385846200180e565b620013ae8362001950565b840190509392505050565b6000620013c7838562001799565b9350620013d68385846200180e565b82840190509392505050565b6000620013ef8262001730565b620013fb818562001777565b93506200140d8185602086016200181d565b620014188162001950565b840191505092915050565b6000620014308262001730565b6200143c818562001788565b93506200144e8185602086016200181d565b620014598162001950565b840191505092915050565b60006200147360268362001788565b915062001480826200196e565b604082019050919050565b60006200149a606f8362001788565b9150620014a782620019bd565b608082019050919050565b6000620014c160208362001788565b9150620014ce8262001a58565b602082019050919050565b620014e48162001804565b82525050565b6000620014f9828486620013b9565b91508190509392505050565b60006020820190506200151c600083018462001270565b92915050565b600060208201905081810360008301526200153e8184620012f4565b905092915050565b60006020820190506200155d600083018462001375565b92915050565b600060208201905081810360008301526200158081848662001386565b90509392505050565b60006060820190508181036000830152620015a681868862001386565b9050620015b7602083018562001270565b8181036040830152620015cb818462001281565b905095945050505050565b60006040820190508181036000830152620015f381858762001386565b9050620016046020830184620014d9565b949350505050565b6000602082019050818103600083015262001628818462001423565b905092915050565b600060208201905081810360008301526200164b8162001464565b9050919050565b600060208201905081810360008301526200166d816200148b565b9050919050565b600060208201905081810360008301526200168f81620014b2565b9050919050565b6000620016a2620016b5565b9050620016b08282620018a7565b919050565b6000604051905090565b600067ffffffffffffffff821115620016dd57620016dc6200190c565b5b620016e88262001950565b9050602081019050919050565b60008190508160005260206000209050919050565b6000819050602082019050919050565b600081549050919050565b600081519050919050565b600081519050919050565b6000600182019050919050565b6000602082019050919050565b600082825260208201905092915050565b600082825260208201905092915050565b600082825260208201905092915050565b600082825260208201905092915050565b600081905092915050565b600073ffffffffffffffffffffffffffffffffffffffff82169050919050565b6000620017d182620017e4565b9050919050565b60008115159050919050565b600073ffffffffffffffffffffffffffffffffffffffff82169050919050565b6000819050919050565b82818337600083830152505050565b60005b838110156200183d57808201518184015260208101905062001820565b838111156200184d576000848401525b50505050565b600060028204905060018216806200186c57607f821691505b60208210811415620018835762001882620018dd565b5b50919050565b6000620018a06200189a8362001961565b620017a4565b9050919050565b620018b28262001950565b810181811067ffffffffffffffff82111715620018d457620018d36200190c565b5b80604052505050565b7f4e487b7100000000000000000000000000000000000000000000000000000000600052602260045260246000fd5b7f4e487b7100000000000000000000000000000000000000000000000000000000600052604160045260246000fd5b600062001949825462001889565b9050919050565b6000601f19601f8301169050919050565b60008160001c9050919050565b7f4f776e61626c653a206e6577206f776e657220697320746865207a65726f206160008201527f6464726573730000000000000000000000000000000000000000000000000000602082015250565b7f497373756520616c72656164792065786973747320666f7220676976656e206960008201527f642e2046696e642069747320616464726573732062792063616c6c696e67206960208201527f73737565546f41646472657373206f6e207468697320636f6e7472616374207760408201527f6974682074686520697373756549640000000000000000000000000000000000606082015250565b7f4f776e61626c653a2063616c6c6572206973206e6f7420746865206f776e6572600082015250565b62001a8c81620017c4565b811462001a9857600080fd5b50565b6002811062001aa957600080fd5b50565b62001ab78162001804565b811462001ac357600080fd5b5056fe608060405262278d006002553480156200001857600080fd5b5060405162001b8138038062001b8183398181016040528101906200003e919062000469565b6200005e620000526200013360201b60201c565b6200013b60201b60201c565b826004908051906020019062000076929190620001ff565b5080600690805190602001906200008f92919062000290565b506000600760006101000a81548160ff02191690836001811115620000dd577f4e487b7100000000000000000000000000000000000000000000000000000000600052602160045260246000fd5b021790555081600360006101000a81548173ffffffffffffffffffffffffffffffffffffffff021916908373ffffffffffffffffffffffffffffffffffffffff16021790555042600181905550505050620006de565b600033905090565b60008060009054906101000a900473ffffffffffffffffffffffffffffffffffffffff169050816000806101000a81548173ffffffffffffffffffffffffffffffffffffffff021916908373ffffffffffffffffffffffffffffffffffffffff1602179055508173ffffffffffffffffffffffffffffffffffffffff168173ffffffffffffffffffffffffffffffffffffffff167f8be0079c531659141344cd1fd0a4f28419497f9722a3daafe3b4186f6b6457e060405160405180910390a35050565b8280546200020d90620005e9565b90600052602060002090601f0160209004810192826200023157600085556200027d565b82601f106200024c57805160ff19168380011785556200027d565b828001600101855582156200027d579182015b828111156200027c5782518255916020019190600101906200025f565b5b5090506200028c91906200031f565b5090565b8280548282559060005260206000209081019282156200030c579160200282015b828111156200030b5782518260006101000a81548173ffffffffffffffffffffffffffffffffffffffff021916908373ffffffffffffffffffffffffffffffffffffffff16021790555091602001919060010190620002b1565b5b5090506200031b91906200031f565b5090565b5b808211156200033a57600081600090555060010162000320565b5090565b6000620003556200034f846200051a565b620004f1565b905080838252602082019050828560208602820111156200037557600080fd5b60005b85811015620003a957816200038e8882620003f8565b84526020840193506020830192505060018101905062000378565b5050509392505050565b6000620003ca620003c48462000549565b620004f1565b905082815260208101848484011115620003e357600080fd5b620003f0848285620005b3565b509392505050565b6000815190506200040981620006c4565b92915050565b600082601f8301126200042157600080fd5b8151620004338482602086016200033e565b91505092915050565b600082601f8301126200044e57600080fd5b815162000460848260208601620003b3565b91505092915050565b6000806000606084860312156200047f57600080fd5b600084015167ffffffffffffffff8111156200049a57600080fd5b620004a8868287016200043c565b9350506020620004bb86828701620003f8565b925050604084015167ffffffffffffffff811115620004d957600080fd5b620004e7868287016200040f565b9150509250925092565b6000620004fd62000510565b90506200050b82826200061f565b919050565b6000604051905090565b600067ffffffffffffffff82111562000538576200053762000684565b5b602082029050602081019050919050565b600067ffffffffffffffff82111562000567576200056662000684565b5b6200057282620006b3565b9050602081019050919050565b60006200058c8262000593565b9050919050565b600073ffffffffffffffffffffffffffffffffffffffff82169050919050565b60005b83811015620005d3578082015181840152602081019050620005b6565b83811115620005e3576000848401525b50505050565b600060028204905060018216806200060257607f821691505b6020821081141562000619576200061862000655565b5b50919050565b6200062a82620006b3565b810181811067ffffffffffffffff821117156200064c576200064b62000684565b5b80604052505050565b7f4e487b7100000000000000000000000000000000000000000000000000000000600052602260045260246000fd5b7f4e487b7100000000000000000000000000000000000000000000000000000000600052604160045260246000fd5b6000601f19601f8301169050919050565b620006cf816200057f565b8114620006db57600080fd5b50565b61149380620006ee6000396000f3fe608060405234801561001057600080fd5b50600436106100cf5760003560e01c80639375dd901161008c578063df07b60e11610066578063df07b60e146101ca578063e5df8b84146101e8578063f16b51c114610218578063f2fde38b14610236576100cf565b80639375dd9014610174578063b588d22514610190578063cc9cd961146101c0576100cf565b80631d143848146100d4578063200d2ed2146100f257806332710c6e146101105780637044f2821461012e578063715018a61461014c5780638da5cb5b14610156575b600080fd5b6100dc610252565b6040516100e99190610f4e565b60405180910390f35b6100fa610278565b6040516101079190610f92565b60405180910390f35b61011861028b565b6040516101259190610fad565b60405180910390f35b610136610319565b6040516101439190610f4e565b60405180910390f35b61015461033f565b005b61015e6103c7565b60405161016b9190610f4e565b60405180910390f35b61018e60048036038101906101899190610d6c565b6103f0565b005b6101aa60048036038101906101a59190610d6c565b6107d5565b6040516101b7919061106f565b60405180910390f35b6101c861086c565b005b6101d2610af4565b6040516101df919061106f565b60405180910390f35b61020260048036038101906101fd9190610de7565b610afa565b60405161020f9190610f4e565b60405180910390f35b610220610b39565b60405161022d919061106f565b60405180910390f35b610250600480360381019061024b9190610d6c565b610b3f565b005b600360009054906101000a900473ffffffffffffffffffffffffffffffffffffffff1681565b600760009054906101000a900460ff1681565b600480546102989061119c565b80601f01602080910402602001604051908101604052809291908181526020018280546102c49061119c565b80156103115780601f106102e657610100808354040283529160200191610311565b820191906000526020600020905b8154815290600101906020018083116102f457829003601f168201915b505050505081565b600560009054906101000a900473ffffffffffffffffffffffffffffffffffffffff1681565b610347610c37565b73ffffffffffffffffffffffffffffffffffffffff166103656103c7565b73ffffffffffffffffffffffffffffffffffffffff16146103bb576040517f08c379a00000000000000000000000000000000000000000000000000000000081526004016103b29061102f565b60405180910390fd5b6103c56000610c3f565b565b60008060009054906101000a900473ffffffffffffffffffffffffffffffffffffffff16905090565b6103f8610c37565b73ffffffffffffffffffffffffffffffffffffffff166104166103c7565b73ffffffffffffffffffffffffffffffffffffffff161461046c576040517f08c379a00000000000000000000000000000000000000000000000000000000081526004016104639061102f565b60405180910390fd5b600060018111156104a6577f4e487b7100000000000000000000000000000000000000000000000000000000600052602160045260246000fd5b3073ffffffffffffffffffffffffffffffffffffffff1663200d2ed26040518163ffffffff1660e01b815260040160206040518083038186803b1580156104ec57600080fd5b505afa158015610500573d6000803e3d6000fd5b505050506040513d601f19601f820116820180604052508101906105249190610dbe565b600181111561055c577f4e487b7100000000000000000000000000000000000000000000000000000000600052602160045260246000fd5b1461059c576040517f08c379a00000000000000000000000000000000000000000000000000000000081526004016105939061100f565b60405180910390fd5b6001600760006101000a81548160ff021916908360018111156105e8577f4e487b7100000000000000000000000000000000000000000000000000000000600052602160045260246000fd5b021790555080600560006101000a81548173ffffffffffffffffffffffffffffffffffffffff021916908373ffffffffffffffffffffffffffffffffffffffff16021790555060005b6006805490508110156107d15760006006828154811061067a577f4e487b7100000000000000000000000000000000000000000000000000000000600052603260045260246000fd5b9060005260206000200160009054906101000a900473ffffffffffffffffffffffffffffffffffffffff1690508073ffffffffffffffffffffffffffffffffffffffff1663a9059cbb848373ffffffffffffffffffffffffffffffffffffffff166370a08231306040518263ffffffff1660e01b81526004016106fd9190610f4e565b60206040518083038186803b15801561071557600080fd5b505afa158015610729573d6000803e3d6000fd5b505050506040513d601f19601f8201168201806040525081019061074d9190610e10565b6040518363ffffffff1660e01b815260040161076a929190610f69565b602060405180830381600087803b15801561078457600080fd5b505af1158015610798573d6000803e3d6000fd5b505050506040513d601f19601f820116820180604052508101906107bc9190610d95565b505080806107c9906111ce565b915050610631565b5050565b6000808290508073ffffffffffffffffffffffffffffffffffffffff166370a08231306040518263ffffffff1660e01b81526004016108149190610f4e565b60206040518083038186803b15801561082c57600080fd5b505afa158015610840573d6000803e3d6000fd5b505050506040513d601f19601f820116820180604052508101906108649190610e10565b915050919050565b600360009054906101000a900473ffffffffffffffffffffffffffffffffffffffff1673ffffffffffffffffffffffffffffffffffffffff163373ffffffffffffffffffffffffffffffffffffffff16146108fc576040517f08c379a00000000000000000000000000000000000000000000000000000000081526004016108f390610fcf565b60405180910390fd5b60025460015461090c91906110a6565b42101561094e576040517f08c379a00000000000000000000000000000000000000000000000000000000081526004016109459061104f565b60405180910390fd5b60005b600680549050811015610af15760006006828154811061099a577f4e487b7100000000000000000000000000000000000000000000000000000000600052603260045260246000fd5b9060005260206000200160009054906101000a900473ffffffffffffffffffffffffffffffffffffffff1690508073ffffffffffffffffffffffffffffffffffffffff1663a9059cbb338373ffffffffffffffffffffffffffffffffffffffff166370a08231306040518263ffffffff1660e01b8152600401610a1d9190610f4e565b60206040518083038186803b158015610a3557600080fd5b505afa158015610a49573d6000803e3d6000fd5b505050506040513d601f19601f82011682018060405250810190610a6d9190610e10565b6040518363ffffffff1660e01b8152600401610a8a929190610f69565b602060405180830381600087803b158015610aa457600080fd5b505af1158015610ab8573d6000803e3d6000fd5b505050506040513d601f19601f82011682018060405250810190610adc9190610d95565b50508080610ae9906111ce565b915050610951565b50565b60015481565b60068181548110610b0a57600080fd5b906000526020600020016000915054906101000a900473ffffffffffffffffffffffffffffffffffffffff1681565b60025481565b610b47610c37565b73ffffffffffffffffffffffffffffffffffffffff16610b656103c7565b73ffffffffffffffffffffffffffffffffffffffff1614610bbb576040517f08c379a0000000000000000000000000000000000000000000000000000000008152600401610bb29061102f565b60405180910390fd5b600073ffffffffffffffffffffffffffffffffffffffff168173ffffffffffffffffffffffffffffffffffffffff161415610c2b576040517f08c379a0000000000000000000000000000000000000000000000000000000008152600401610c2290610fef565b60405180910390fd5b610c3481610c3f565b50565b600033905090565b60008060009054906101000a900473ffffffffffffffffffffffffffffffffffffffff169050816000806101000a81548173ffffffffffffffffffffffffffffffffffffffff021916908373ffffffffffffffffffffffffffffffffffffffff1602179055508173ffffffffffffffffffffffffffffffffffffffff168173ffffffffffffffffffffffffffffffffffffffff167f8be0079c531659141344cd1fd0a4f28419497f9722a3daafe3b4186f6b6457e060405160405180910390a35050565b600081359050610d1281611408565b92915050565b600081519050610d278161141f565b92915050565b600081519050610d3c81611436565b92915050565b600081359050610d5181611446565b92915050565b600081519050610d6681611446565b92915050565b600060208284031215610d7e57600080fd5b6000610d8c84828501610d03565b91505092915050565b600060208284031215610da757600080fd5b6000610db584828501610d18565b91505092915050565b600060208284031215610dd057600080fd5b6000610dde84828501610d2d565b91505092915050565b600060208284031215610df957600080fd5b6000610e0784828501610d42565b91505092915050565b600060208284031215610e2257600080fd5b6000610e3084828501610d57565b91505092915050565b610e42816110fc565b82525050565b610e5181611157565b82525050565b6000610e628261108a565b610e6c8185611095565b9350610e7c818560208601611169565b610e85816112a4565b840191505092915050565b6000610e9d603a83611095565b9150610ea8826112b5565b604082019050919050565b6000610ec0602683611095565b9150610ecb82611304565b604082019050919050565b6000610ee3602f83611095565b9150610eee82611353565b604082019050919050565b6000610f06602083611095565b9150610f11826113a2565b602082019050919050565b6000610f29601b83611095565b9150610f34826113cb565b602082019050919050565b610f488161114d565b82525050565b6000602082019050610f636000830184610e39565b92915050565b6000604082019050610f7e6000830185610e39565b610f8b6020830184610f3f565b9392505050565b6000602082019050610fa76000830184610e48565b92915050565b60006020820190508181036000830152610fc78184610e57565b905092915050565b60006020820190508181036000830152610fe881610e90565b9050919050565b6000602082019050818103600083015261100881610eb3565b9050919050565b6000602082019050818103600083015261102881610ed6565b9050919050565b6000602082019050818103600083015261104881610ef9565b9050919050565b6000602082019050818103600083015261106881610f1c565b9050919050565b60006020820190506110846000830184610f3f565b92915050565b600081519050919050565b600082825260208201905092915050565b60006110b18261114d565b91506110bc8361114d565b9250827fffffffffffffffffffffffffffffffffffffffffffffffffffffffffffffffff038211156110f1576110f0611217565b5b828201905092915050565b60006111078261112d565b9050919050565b60008115159050919050565b6000819050611128826113f4565b919050565b600073ffffffffffffffffffffffffffffffffffffffff82169050919050565b6000819050919050565b60006111628261111a565b9050919050565b60005b8381101561118757808201518184015260208101905061116c565b83811115611196576000848401525b50505050565b600060028204905060018216806111b457607f821691505b602082108114156111c8576111c7611275565b5b50919050565b60006111d98261114d565b91507fffffffffffffffffffffffffffffffffffffffffffffffffffffffffffffffff82141561120c5761120b611217565b5b600182019050919050565b7f4e487b7100000000000000000000000000000000000000000000000000000000600052601160045260246000fd5b7f4e487b7100000000000000000000000000000000000000000000000000000000600052602160045260246000fd5b7f4e487b7100000000000000000000000000000000000000000000000000000000600052602260045260246000fd5b6000601f19601f8301169050919050565b7f4f6e6c7920697373756572206f66207468697320626f756e74792063616e207260008201527f65636c61696d2066756e64732061667465722033302064617973000000000000602082015250565b7f4f776e61626c653a206e6577206f776e657220697320746865207a65726f206160008201527f6464726573730000000000000000000000000000000000000000000000000000602082015250565b7f5468697320697320697373756520697320636c6f7365642e2043616e6e6f742060008201527f776974686472617720616761696e2e0000000000000000000000000000000000602082015250565b7f4f776e61626c653a2063616c6c6572206973206e6f7420746865206f776e6572600082015250565b7f546f6f206561726c7920746f2077697468647261772066756e64730000000000600082015250565b6002811061140557611404611246565b5b50565b611411816110fc565b811461141c57600080fd5b50565b6114288161110e565b811461143357600080fd5b50565b6002811061144357600080fd5b50565b61144f8161114d565b811461145a57600080fd5b5056fea26469706673582212205c29e4f2303aaa3f745a555d490f6d34c431fa5d87d1e0f0eccc87d3d76a14c164736f6c63430008040033a26469706673582212200cc81a8add6777ad2d887204e82016a753d27ba7ac7b2a1538a50b52ea49384864736f6c63430008040033",
  "linkReferences": {},
  "deployedLinkReferences": {}
}